S01D00004B65797061645F4C6F636B5F41544D6567613332412E73726563AD
S11300000C9459000C9463000C9463000C946300EA
S11300100C9463000C9463000C9463000C946300D0
S11300200C9463000C9463000C9463000C946300C0
S11300300C9463000C9463000C9463000C946300B0
S11300400C9463000C9463000C9463000C946300A0
S11300500C9463009B009E00A100A400A700AA00CA
S1130060AD00B000B300B600D000D000D000BF0097
S1130070C200C500C800CB00CE00D000D000D00024
S1130080D000D000D000D000D000D000D000D000EC
S1130090D000D000D000D000D000D000D000D000DC
S11300A0D000D000D000D000D000D000D000B900E3
S11300B0BC0011241FBECFE5D8E0DEBFCDBF0E9437
S11300C09A010C9479020C9400008FEF8ABB1BBA3E
S11300D017BA87B38F6087BB18BA81B38F6081BBAF
S11300E081B381BB82B3806F82BB0895FB0180839F
S11300F081838283838308958FEF8BBB88BB0895AC
S1130100623059F018F4613031F00CC0633039F0CA
S1130110643039F007C0C09805C0C19803C0C298C4
S113012001C0C39890E08F329105D0F5FC01E65DE3
S1130130FF4F0C94730280EC8BBB32C089EF8BBBF6
S11301402FC084EA8BBB2CC080EB8BBB29C089E910
S11301508BBB26C082E98BBB23C082E88BBB20C04B
S113016088EF8BBB1DC080E88BBB1AC080E98BBBBA
S113017017C08FEB8BBB14C08FE78BBB11C08FE311
S11301808BBB0EC08CE88BBB0BC086E88BBB08C056
S113019088EC8BBB05C088E88BBB02C08FEF8BBBA0
S11301A088EC8A95F1F70E947C00089582E48A9590
S11301B0F1F700C0909892E49A95F1F700C080B3EB
S11301C084FD0BC090B38917E9F3E7EAF1E63197B0
S11301D0F1F700C0000081E0089585FD0BC090B3E5
S11301E08917E9F387EA91E60197F1F700C0000067
S11301F082E0089586FD0BC090B38917E9F3E7EA1E
S1130200F1E63197F1F700C0000083E008958823F8
S11302105CF090B38917E9F387EA91E60197F1F767
S113022000C0000084E00895909A92E49A95F1F752
S113023000C09198E2E4EA95F1F700C080B384FD30
S11302400BC090B38917E9F387EA91E60197F1F7B8
S113025000C0000085E0089585FD0BC090B38917A8
S1130260E9F3E7EAF1E63197F1F700C0000086E030
S1130270089586FD0BC090B38917E9F387EA91E6E8
S11302800197F1F700C0000087E0089588235CF02F
S113029090B38917E9F3E7EAF1E63197F1F700C083
S11302A0000088E00895919AF2E4FA95F1F700C00D
S11302B0929882E48A95F1F700C090B394FD0BC044
S11302C080B39817E9F3E7EAF1E63197F1F700C054
S11302D0000089E00895892F807295FD0AC020B33B
S11302E09217E9F3E7EAF1E63197F1F700C000006D
S11302F0089596FD0BC080B39817E9F387EA91E659
S11303000197F1F700C000008BE0089599235CF099
S113031080B39817E9F3E7EAF1E63197F1F700C003
S113032000008CE00895929AF2E4FA95F1F700C087
S113033088EC0895CF93DF9300D000D0CDB7DEB71B
S11303408DE289838A838B838C830E94650011E00C
S11303500E94D600883C51F18C3041F4BE016F5F9D
S11303607F4F8DE20E94760011E0F2CF1530C9F480
S11303708B30B9F4C980BA809B80AC80BE016F5FBA
S11303807F4F8DE00E94760011E06894DD24D3F85D
S11303900F2EF1E1EF2EF02D0F2EF2E1FF2EF02DB6
S11303A020C0FE01E10FF11D80831F5F163088F429
S11303B061E089810E94800062E08A810E9480005D
S11303C063E08B810E94800064E08C810E94800045
S11303D0BFCFBE016F5F7F4F8DE20E94760011E0B8
S11303E0B7CF0E94D600883C09F451C08C3041F448
S11303F0BE016F5F7F4F8DE00E94760011E0F1CF68
S1130400153009F03FC08B30E9F58981C81211C05D
S11304108A81B8120EC08B8198120BC08C81A812ED
S113042008C019828EE08A838FE08B8380E18C83FD
S113043049C0D982EA821B82FC8200E010E061E0BC
S113044089810E94800062E08A810E94800063E0CA
S11304508B810E94800064E08C810E94800081EE88
S113046094E00197F1F700C000000F5F1F4F083CB4
S1130470110529F7BE016F5F7F4F8DE00E94760062
S113048011E0AFCFFE01E10FF11D80831F5F163035
S113049088F461E089810E94800062E08A810E9480
S11304A0800063E08B810E94800064E08C810E9464
S11304B0800097CFBE016F5F7F4F8DE20E94760070
S11304C011E08FCF61E089810E94800062E08A811F
S11304D00E94800063E08B810E94800064E08C8134
S11304E00E948000EFCFEE0FFF1F0590F491E02DE6
S10904F00994F894FFCF0B
S9030000FC
