S01D00004B65797061645F4C6F636B5F41544D6567613332412E73726563AD
S11300000C9459000C9463000C9463000C946300EA
S11300100C9463000C9463000C9463000C946300D0
S11300200C9463000C9463000C9463000C946300C0
S11300300C9463000C9463000C9463000C946300B0
S11300400C9463000C9463000C9463000C946300A0
S11300500C9463009B009E00A100A400A700AA00CA
S1130060AD00B000B300B600D000D000D000BF0097
S1130070C200C500C800CB00CE00D000D000D00024
S1130080D000D000D000D000D000D000D000D000EC
S1130090D000D000D000D000D000D000D000D000DC
S11300A0D000D000D000D000D000D000D000B900E3
S11300B0BC0011241FBECFE5D8E0DEBFCDBF0E9437
S11300C0A6010C9498020C9400008FEF8ABB1BBA13
S11300D017BA87B38F6087BB18BA81B38F6081BBAF
S11300E081B381BB82B3806F82BB0895FB0180839F
S11300F081838283838308958FEF8BBB88BB0895AC
S1130100623059F018F4613031F00CC0633039F0CA
S1130110643039F007C0C09805C0C19803C0C298C4
S113012001C0C39890E08F329105D0F5FC01E65DE3
S1130130FF4F0C94920280EC8BBB32C089EF8BBBD7
S11301402FC084EA8BBB2CC080EB8BBB29C089E910
S11301508BBB26C082E98BBB23C082E88BBB20C04B
S113016088EF8BBB1DC080E88BBB1AC080E98BBBBA
S113017017C08FEB8BBB14C08FE78BBB11C08FE311
S11301808BBB0EC08CE88BBB0BC086E88BBB08C056
S113019088EC8BBB05C088E88BBB02C08FEF8BBBA0
S11301A088EC8A95F1F70E947C00089582E48A9590
S11301B0F1F700C0909892E49A95F1F700C080B3EB
S11301C084FD0CC090B38917E9F387EA91E601979F
S11301D0F1F700C0000081E090E0089585FD0CC0B7
S11301E090B38917E9F387EA91E60197F1F700C024
S11301F0000082E090E0089586FD0CC090B389175A
S1130200E9F387EA91E60197F1F700C0000083E083
S113021090E00895882364F090B38917E9F387EA9E
S113022091E60197F1F700C0000084E090E00895A2
S1130230909A92E49A95F1F700C0919882E48A9595
S1130240F1F700C080B384FD0CC090B38917E9F3C3
S113025087EA91E60197F1F700C0000085E090E09D
S1130260089585FD0CC090B38917E9F387EA91E6F8
S11302700197F1F700C0000086E090E0089586FD44
S11302800CC090B38917E9F387EA91E60197F1F777
S113029000C0000087E090E00895882364F090B3E4
S11302A08917E9F387EA91E60197F1F700C00000A6
S11302B088E090E00895919A92E49A95F1F700C04D
S11302C0929882E48A95F1F700C080B384FD0CC053
S11302D090B38917E9F387EA91E60197F1F700C033
S11302E0000089E090E0089585FD0CC090B3891763
S11302F0E9F387EA91E60197F1F700C0000080E096
S113030090E0089586FD0CC090B38917E9F387EA5D
S113031091E60197F1F700C000008BE090E00895AA
S1130320882364F090B38917E9F387EA91E601978B
S1130330F1F700C000008CE090E00895929A92E4F6
S11303409A95F1F700C08FEF9FEF0895CF93DF9355
S113035000D000D01F92CDB7DEB78DE28A838B83A5
S11303608C838D830E94650011E0CE0101960E946A
S1130370D6008F3F2FEF920779F18C30910541F42D
S1130380BE016E5F7F4F8DE20E94760011E0EDCFDB
S11303901530D1F48B309105B9F4CA80BB809C80B0
S11303A0AD80BE016E5F7F4F8DE00E94760011E04C
S11303B06894DD24D3F80F2EF1E1EF2EF02D0F2EEB
S11303C0F2E1FF2EF02D23C0E1E0F0E0EC0FFD1F81
S11303D0E10FF11D80831F5F163088F461E08A818C
S11303E00E94800062E08B810E94800063E08C8127
S11303F00E94800064E08D810E948000B6CFBE011F
S11304006E5F7F4F8DE20E94760011E0AECFCE0189
S113041001960E94D6008F3F2FEF920709F456C031
S11304208C30910541F4BE016E5F7F4F8DE00E94D8
S1130430760011E0ECCF153009F040C08B30910507
S1130440E9F58A81C81211C08B81B8120EC08C8163
S113045098120BC08D81A81208C01A828EE08B837B
S11304608FE08C8380E18D834CC0DA82EB821C8226
S1130470FD8200E010E061E08A810E94800062E079
S11304808B810E94800063E08C810E94800064E084
S11304908D810E94800081EE94E00197F1F700C005
S11304A000000F5F1F4F083C110529F7BE016E5F66
S11304B07F4F8DE00E94760011E0A9CFE1E0F0E0EB
S11304C0EC0FFD1FE10FF11D80831F5F163088F4D0
S11304D061E08A810E94800062E08B810E9480003A
S11304E063E08C810E94800064E08D810E94800022
S11304F08ECFBE016E5F7F4F8DE20E94760011E0C9
S113050086CF61E08A810E94800062E08B810E9434
S1130510800063E08C810E94800064E08D810E94F1
S11305208000EFCFEE0FFF1F0590F491E02D0994AA
S1070530F894FFCF69
S9030000FC
