:100000000C9459000C9463000C9463000C946300EE
:100010000C9463000C9463000C9463000C946300D4
:100020000C9463000C9463000C9463000C946300C4
:100030000C9463000C9463000C9463000C946300B4
:100040000C9463000C9463000C9463000C946300A4
:100050000C94630088008B008E0091009400970040
:100060009A009D00A000A300BD00BD00BD00AC0033
:10007000AF00B200B500B800BB00BD00BD00BD00C0
:10008000BD00BD00BD00BD00BD00BD00BD00BD0088
:10009000BD00BD00BD00BD00BD00BD00BD00BD0078
:1000A000BD00BD00BD00BD00BD00BD00BD00A6007F
:1000B000A90011241FBECFE5D8E0DEBFCDBF0E944E
:1000C000DE020C94FD020C940000FC018DE28083A2
:1000D0008183828383830895423059F018F441303C
:1000E00031F00CC0433039F0443039F007C0C098CB
:1000F00005C0C19803C0C29801C0C398862F90E084
:100100008F329105D0F5FC01E65DFF4F0C94F702AC
:1001100080EC8BBB32C089EF8BBB2FC084EA8BBBDA
:100120002CC080EB8BBB29C089E98BBB26C082E940
:100130008BBB23C082E88BBB20C088EF8BBB1DC06C
:1001400080E88BBB1AC080E98BBB17C08FEB8BBBE1
:1001500014C08FE78BBB11C08FE38BBB0EC08CE844
:100160008BBB0BC086E88BBB08C088EC8BBB05C083
:1001700088E88BBB02C08FEF8BBB88EC8A95F1F7C8
:100180008FEF8BBB88BB0895FC0160836183628322
:1001900063830895CF93DF93EC0141E068810E946F
:1001A0006C0042E06981CE010E946C0043E06A81EC
:1001B000CE010E946C0044E06B81CE010E946C0075
:1001C000DF91CF910895860F911DFC014083089522
:1001D00082E48A95F1F700C0909892E49A95F1F73D
:1001E00000C080B384FD0CC090B38917E9F387EA9F
:1001F00091E60197F1F700C0000081E090E00895DA
:1002000085FD0CC090B38917E9F387EA91E6019761
:10021000F1F700C0000082E090E0089586FD0CC078
:1002200090B38917E9F387EA91E60197F1F700C0E7
:10023000000083E090E00895882364F090B389176C
:10024000E9F387EA91E60197F1F700C0000084E046
:1002500090E00895909A92E49A95F1F700C09198F1
:1002600082E48A95F1F700C080B384FD0CC090B39E
:100270008917E9F387EA91E60197F1F700C00000DA
:1002800085E090E0089585FD0CC090B38917E9F3EF
:1002900087EA91E60197F1F700C0000086E090E060
:1002A000089586FD0CC090B38917E9F387EA91E6BB
:1002B0000197F1F700C0000087E090E008958823DF
:1002C00064F090B38917E9F387EA91E60197F1F7B3
:1002D00000C0000088E090E00895919A92E49A9519
:1002E000F1F700C0929882E48A95F1F700C080B3DC
:1002F00084FD0CC090B38917E9F387EA91E6019772
:10030000F1F700C0000089E090E0089585FD0CC081
:1003100090B38917E9F387EA91E60197F1F700C0F6
:10032000000080E090E0089586FD0CC090B389172E
:10033000E9F387EA91E60197F1F700C000008BE04E
:1003400090E00895882364F090B38917E9F387EA71
:1003500091E60197F1F700C000008CE090E008956D
:10036000929A92E49A95F1F700C08FEF9FEF08956B
:100370008FEF8ABB1BBA17BA87B38F6087BB18BAD7
:1003800081B38F6081BB81B381BB82B3806F82BB3D
:100390000895CF92DF92EF92FF920F931F93CF9326
:1003A0008C016B01C1E07C0124E0E20EF11CC7016D
:1003B0000E94E8008F3FEFEF9E0731F18C309105EE
:1003C00031F46DE2C8010E94C400C1E0F0CFC53035
:1003D000A1F48B30910589F4F8018081F6018083C6
:1003E000F8018181F6018183F8018281F60182831F
:1003F000F8018381F601838313C06FEF6C0F482FE0
:10040000C8010E94E300CF5FC63020F4C8010E94FB
:10041000CA00CDCF6DE2C8010E94C400C1E0C7CFC1
:10042000CF911F910F91FF90EF90DF90CF900895A3
:100430008F929F92AF92BF92CF92DF92EF92FF92F4
:100440000F931F93CF93DF937C015B014A01C1E0BF
:100450006C0124E0C20ED11CC6010E94E8008F3F4F
:10046000EFEF9E0709F475C08C30910531F46DE013
:10047000C7010E94C400C1E0EFCFC53009F062C0DF
:100480008B30910509F05EC0F7018081F501808312
:10049000F7019181F5019183F7013281F5013283F2
:1004A000F7012381F5012383F401408148131EC025
:1004B000818189131BC08281831318C083818213B9
:1004C00015C040E060E0C7010E94E3004EE061E03B
:1004D000C7010E94E3004FE062E0C7010E94E30011
:1004E00040E163E0C7010E94E3003FC00E2D1F2DD5
:1004F00048E060E0C7010E94E30041E161E0C7011C
:100500000E94E30040E062E0C7010E94E30042E194
:1005100063E0C7010E94E300C0E0D0E0802F912F8C
:100520000E94CA0081EE94E00197F1F700C000003C
:100530002196C83CD10591F76DE0C7010E94C40027
:10054000C1E08ACF6FEF6C0F482FC7010E94E30014
:10055000CF5FC63020F4C7010E94CA007DCF6DE294
:10056000C7010E94C400C1E077CFDF91CF911F91F6
:100570000F91FF90EF90DF90CF90BF90AF909F9042
:100580008F900895EC010E946500CE010E94B80191
:100590008E010B5F1F4FB801CE010E94C9016DE0B3
:1005A000CE010E94C400BE01675F7F4FA801CE014B
:1005B0000E941802CE010E94CA00FCCFCF93DF93A5
:1005C000CDB7DEB72D970FB6F894DEBF0FBECDBF07
:1005D000CE0101960E94C20280E090E02D960FB6F7
:1005E000F894DEBF0FBECDBFDF91CF910895EE0F1F
:0E05F000FF1F0590F491E02D0994F894FFCFC1
:00000001FF
