S01D00004B65797061645F4C6F636B5F41544D6567613332412E73726563AD
S11300000C945A000C9477000C9477000C947700AD
S11300100C9477000C9477000C9477000C94770080
S11300200C9477000C9477000C9477000C94770070
S11300300C9477000C9477000C9477000C94770060
S11300400C9477000C9477000C9477000C94770050
S11300500C9477009C009F00A200A500A800AB00B0
S1130060AE00B100B400B700D100D100D100C0008F
S1130070C300C600C900CC00CF00D100D100D1001C
S1130080D100D100D100D100D100D100D100D100E4
S1130090D100D100D100D100D100D100D100D100D4
S11300A0D100D100D100D100D100D100D100BA00DB
S11300B0BD00EA0211241FBECFE5D8E0DEBFCDBFEC
S11300C020E0A0E6B0E001C01D92A536B207E1F73A
S11300D010E0CAE5D0E004C02197FE010E94EF02BF
S11300E0C935D107C9F70E94C9020C94F5020C94D2
S11300F00000FC018DE280838183828383830895E1
S1130100423059F018F4413031F00CC0433039F02A
S1130110443039F007C0C09805C0C19803C0C298E4
S113012001C0C398862F90E08F329105D0F5FC0171
S1130130E65DFF4F0C94EF0280EC8BBB32C089EF7D
S11301408BBB2FC084EA8BBB2CC080EB8BBB29C03C
S113015089E98BBB26C082E98BBB23C082E88BBBB9
S113016020C088EF8BBB1DC080E88BBB1AC080E920
S11301708BBB17C08FEB8BBB14C08FE78BBB11C03D
S11301808FE38BBB0EC08CE88BBB0BC086E88BBBAC
S113019008C088EC8BBB05C088E88BBB02C08FEF1E
S11301A08BBB88EC8A95F1F78FEF8BBB88BB0895E6
S11301B0FC0160836183628363830895CF93DF933B
S11301C0EC0141E068810E94800042E06981CE0137
S11301D00E94800043E06A81CE010E94800044E0D6
S11301E06B81CE010E948000DF91CF910895860F2C
S11301F0911DFC01408308958FEF8ABB1BBA17BA87
S113020087B38F6087BB18BA81B38F6081BB81B31A
S113021081BB82B3806F82BB089582E48A95F1F733
S113022000C0909892E49A95F1F700C080B384FDE1
S11302300CC090B38917E9F387EA91E60197F1F7C7
S113024000C0000081E090E0089585FD0CC090B3EB
S11302508917E9F387EA91E60197F1F700C00000F6
S113026082E090E0089586FD0CC090B38917E9F30D
S113027087EA91E60197F1F700C0000083E090E07F
S11302800895882364F090B38917E9F387EA91E627
S11302900197F1F700C0000084E090E00895909A7F
S11302A092E49A95F1F700C0919882E48A95F1F767
S11302B000C080B384FD0CC090B38917E9F387EACA
S11302C091E60197F1F700C0000085E090E0089501
S11302D085FD0CC090B38917E9F387EA91E601978D
S11302E0F1F700C0000086E090E0089586FD0CC0A0
S11302F090B38917E9F387EA91E60197F1F700C013
S1130300000087E090E00895882364F090B3891793
S1130310E9F387EA91E60197F1F700C0000088E06D
S113032090E00895919A92E49A95F1F700C092981A
S113033082E48A95F1F700C080B384FD0CC090B3C9
S11303408917E9F387EA91E60197F1F700C0000005
S113035089E090E0089585FD0CC090B38917E9F316
S113036087EA91E60197F1F700C0000080E090E091
S1130370089586FD0CC090B38917E9F387EA91E6E6
S11303800197F1F700C000008BE090E00895882306
S113039064F090B38917E9F387EA91E60197F1F7DE
S11303A000C000008CE090E00895929A92E49A953F
S11303B0F1F700C08FEF9FEF08950F931F93CF9332
S11303C08C01C1E080E690E00E940D018F3F2FEF89
S11303D0920741F18C30910539F46DE281E690E0A9
S11303E00E94D800C1E0EECFC530A1F48B30910556
S11303F089F4E1E6F0E08081D8018C938181119643
S11304008C931197828112968C9312978381139601
S11304108C9316C06FEF6C0F482F81E690E00E941A
S1130420F700CF5FC63028F481E690E00E94DE003A
S1130430C9CF6DE281E690E00E94D800C1E0C2CF4E
S1130440CF911F910F910895EF92FF920F931F93F5
S1130450CF93DF938C017B01C1E080E690E00E94A2
S11304600D018F3F2FEF920709F47EC08C30910568
S113047039F46DE081E690E00E94D800C1E0EDCF50
S1130480C53009F069C08B30910509F065C0E1E61B
S1130490F0E08081D8018C93918111969C931197FF
S11304A0328112963C931297238113962C93F70171
S11304B04081481322C0818189131FC08281831324
S11304C01CC08381821319C040E060E081E690E0A3
S11304D00E94F7004EE061E081E690E00E94F700A0
S11304E04FE062E081E690E00E94F70040E163E0C3
S11304F081E690E00E94F70045C048E060E081E6B4
S113050090E00E94F70041E161E081E690E00E9402
S1130510F70040E062E081E690E00E94F70042E1EB
S113052063E081E690E00E94F700C0E0D0E081E65D
S113053090E00E94DE0081EE94E00197F1F700C0A4
S113054000002196C83CD10591F76DE081E690E06A
S11305500E94D800C1E081CF6FEF6C0F482F81E675
S113056090E00E94F700CF5FC63028F481E690E067
S11305700E94DE0072CF6DE281E690E00E94D80016
S1130580C1E06BCFDF91CF911F910F91FF90EF905E
S11305900895CF93DF93CDB7DEB728970FB6F894BD
S11305A0DEBF0FBECDBF0E94FC00CE0101960E94AB
S11305B0DD016DE081E690E00E94D800BE016F5F2E
S11305C07F4FCE0105960E94240281E690E00E94AE
S11305D0DE00FBCF81E690E00E9479000895EE0FE3
S11105E0FF1F0590F491E02D0994F894FFCFCD
S9030000FC
