:100000000C9459000C9463000C9463000C946300EE
:100010000C9463000C9463000C9463000C946300D4
:100020000C9463000C9463000C9463000C946300C4
:100030000C9463000C9463000C9463000C946300B4
:100040000C9463000C9463000C9463000C946300A4
:100050000C9463008100840087008A008D0090006A
:100060009300960099009C00B600B600B600A5006B
:10007000A800AB00AE00B100B400B600B600B600F8
:10008000B600B600B600B600B600B600B600B600C0
:10009000B600B600B600B600B600B600B600B600B0
:1000A000B600B600B600B600B600B600B6009F00B7
:1000B000A20011241FBECFE5D8E0DEBFCDBF0E9455
:1000C000A4010C94C3020C940000423059F018F4BF
:1000D000413031F00CC0433039F0443039F007C0C2
:1000E000C09805C0C19803C0C29801C0C398862FAC
:1000F00090E08F329105D0F5FC01E65DFF4F0C9446
:10010000BD0280EC8BBB32C089EF8BBB2FC084EA71
:100110008BBB2CC080EB8BBB29C089E98BBB26C075
:1001200082E98BBB23C082E88BBB20C088EF8BBBEE
:100130001DC080E88BBB1AC080E98BBB17C08FEB5A
:100140008BBB14C08FE78BBB11C08FE38BBB0EC082
:100150008CE88BBB0BC086E88BBB08C088EC8BBBE4
:1001600005C088E88BBB02C08FEF8BBB88EC8A95FB
:10017000F1F78FEF8BBB88BB0895FA016083618331
:100180006283638308958FEF8ABB1BBA17BA87B364
:100190008F6087BB18BA81B38F6081BB81B381BB8D
:1001A00082B3806F82BB089582E48A95F1F700C024
:1001B000909892E49A95F1F700C080B384FD0CC04A
:1001C00090B38917E9F387EA91E60197F1F700C048
:1001D000000081E090E0089585FD0CC090B3891780
:1001E000E9F387EA91E60197F1F700C0000082E0A9
:1001F00090E0089586FD0CC090B38917E9F387EA73
:1002000091E60197F1F700C0000083E090E00895C7
:10021000882364F090B38917E9F387EA91E60197A0
:10022000F1F700C0000084E090E00895909A92E415
:100230009A95F1F700C0919882E48A95F1F700C091
:1002400080B384FD0CC090B38917E9F387EA91E687
:100250000197F1F700C0000085E090E0089585FD6A
:100260000CC090B38917E9F387EA91E60197F1F79B
:1002700000C0000086E090E0089586FD0CC090B3B9
:100280008917E9F387EA91E60197F1F700C00000CA
:1002900087E090E00895882364F090B38917E9F32C
:1002A00087EA91E60197F1F700C0000088E090E04E
:1002B0000895919A92E49A95F1F700C0929882E499
:1002C0008A95F1F700C080B384FD0CC090B3891704
:1002D000E9F387EA91E60197F1F700C0000089E0B1
:1002E00090E0089585FD0CC090B38917E9F387EA83
:1002F00091E60197F1F700C0000080E090E00895DA
:1003000086FD0CC090B38917E9F387EA91E601975F
:10031000F1F700C000008BE090E00895882364F0BE
:1003200090B38917E9F387EA91E60197F1F700C0E6
:1003300000008CE090E00895929A92E49A95F1F78B
:1003400000C08FEF9FEF0895CF93DF9300D000D0D0
:1003500000D0CDB7DEB78DE28B838C838D838E8307
:100360000E94C30011E0CE0102960E94D4008F3F8C
:100370002FEF920799F18C30910551F4AE014D5F4A
:100380005F4F6DE2CE0101960E94BD0011E0EBCF00
:100390001530E1F48B309105C9F4CB80BC809D8091
:1003A000AE80AE014D5F5F4F6DE0CE0101960E94C1
:1003B000BD0011E06894DD24D3F80F2EF1E1EF2E9B
:1003C000F02D0F2EF2E1FF2EF02D2DC0E2E0F0E037
:1003D000EC0FFD1FE10FF11D80831F5F1630C8F485
:1003E00041E06B81CE0101960E94650042E06C8184
:1003F000CE0101960E94650043E06D81CE01019619
:100400000E94650044E06E81CE0101960E94650065
:10041000AACFAE014D5F5F4F6DE2CE0101960E9403
:10042000BD0011E0A0CFCE0102960E94D4008F3F04
:100430002FEF920709F463C08C30910551F4AE019F
:100440004D5F5F4F6DE0CE0101960E94BD0011E04F
:10045000EACF153009F04BC08B30910509F047C049
:100460008B81C81211C08C81B8120EC08D81981278
:100470000BC08E81A81208C01B828EE08C838FE097
:100480008D8380E18E8360C0DB82EC821D82FE82E0
:1004900000E010E041E06B81CE0101960E94650012
:1004A00042E06C81CE0101960E94650043E06D81BF
:1004B000CE0101960E94650044E06E81CE01019656
:1004C0000E94650081EE94E00197F1F700C0000002
:1004D0000F5F1F4F083C1105E9F6AE014D5F5F4FFE
:1004E0006DE0CE0101960E94BD0011E09CCFE2E0DC
:1004F000F0E0EC0FFD1FE10FF11D80831F5F163050
:10050000C8F441E06B81CE0101960E94650042E093
:100510006C81CE0101960E94650043E06D81CE01A1
:1005200001960E94650044E06E81CE0101960E9412
:10053000650079CFAE014D5F5F4F6DE2CE01019650
:100540000E94BD0011E06FCF41E06B81CE010196AA
:100550000E94650042E06C81CE0101960E94650018
:1005600043E06D81CE0101960E94650044E06E81FA
:10057000CE0101960E946500E7CFEE0FFF1F0590A8
:0A058000F491E02D0994F894FFCFE8
:00000001FF
