S01D00004B65797061645F4C6F636B5F41544D6567613332412E73726563AD
S11300000C9459000C9463000C9463000C946300EA
S11300100C9463000C9463000C9463000C946300D0
S11300200C9463000C9463000C9463000C946300C0
S11300300C9463000C9463000C9463000C946300B0
S11300400C9463000C9463000C9463000C946300A0
S11300500C94630088008B008E009100940097003C
S11300609A009D00A000A300BD00BD00BD00AC002F
S1130070AF00B200B500B800BB00BD00BD00BD00BC
S1130080BD00BD00BD00BD00BD00BD00BD00BD0084
S1130090BD00BD00BD00BD00BD00BD00BD00BD0074
S11300A0BD00BD00BD00BD00BD00BD00BD00A6007B
S11300B0A90011241FBECFE5D8E0DEBFCDBF0E944A
S11300C0C9010C949F020C940000FC018DE2808312
S11300D08183828383830895423059F018F4413038
S11300E031F00CC0433039F0443039F007C0C098C7
S11300F005C0C19803C0C29801C0C398862F90E080
S11301008F329105D0F5FC01E65DFF4F0C94990206
S113011080EC8BBB32C089EF8BBB2FC084EA8BBBD6
S11301202CC080EB8BBB29C089E98BBB26C082E93C
S11301308BBB23C082E88BBB20C088EF8BBB1DC068
S113014080E88BBB1AC080E98BBB17C08FEB8BBBDD
S113015014C08FE78BBB11C08FE38BBB0EC08CE840
S11301608BBB0BC086E88BBB08C088EC8BBB05C07F
S113017088E88BBB02C08FEF8BBB88EC8A95F1F7C4
S11301808FEF8BBB88BB0895FC016083618362831E
S113019063830895CF93DF93EC0141E068810E946B
S11301A06C0042E06981CE010E946C0043E06A81E8
S11301B0CE010E946C0044E06B81CE010E946C0071
S11301C0DF91CF910895860F911DFC01408308951E
S11301D08FEF8ABB1BBA17BA87B38F6087BB18BA75
S11301E081B38F6081BB81B381BB82B3806F82BBDB
S11301F0089582E48A95F1F700C0909892E49A9564
S1130200F1F700C080B384FD0CC090B38917E9F303
S113021087EA91E60197F1F700C0000081E090E0E1
S1130220089585FD0CC090B38917E9F387EA91E638
S11302300197F1F700C0000082E090E0089586FD88
S11302400CC090B38917E9F387EA91E60197F1F7B7
S113025000C0000083E090E00895882364F090B328
S11302608917E9F387EA91E60197F1F700C00000E6
S113027084E090E00895909A92E49A95F1F700C092
S1130280919882E48A95F1F700C080B384FD0CC094
S113029090B38917E9F387EA91E60197F1F700C073
S11302A0000085E090E0089585FD0CC090B38917A7
S11302B0E9F387EA91E60197F1F700C0000086E0D0
S11302C090E0089586FD0CC090B38917E9F387EA9E
S11302D091E60197F1F700C0000087E090E00895EF
S11302E0882364F090B38917E9F387EA91E60197CC
S11302F0F1F700C0000088E090E00895919A92E43C
S11303009A95F1F700C0929882E48A95F1F700C0BB
S113031080B384FD0CC090B38917E9F387EA91E6B2
S11303200197F1F700C0000089E090E0089585FD91
S11303300CC090B38917E9F387EA91E60197F1F7C6
S113034000C0000080E090E0089586FD0CC090B3EA
S11303508917E9F387EA91E60197F1F700C00000F5
S11303608BE090E00895882364F090B38917E9F353
S113037087EA91E60197F1F700C000008CE090E075
S11303800895929A92E49A95F1F700C08FEF9FEF47
S11303900895CF93DF9300D000D01F92CDB7DEB77E
S11303A0CE0101960E9465000E94E80011E0CE0192
S11303B005960E94F9008F3F2FEF920711F18C30C0
S11303C0910539F46DE2CE0101960E94C40011E05A
S11303D0EECF153071F48B30910559F4F980EA8031
S11303E0CB80DC806DE0CE0101960E94C40011E058
S11303F016C06FEF610F482FCE0101960E94E300F3
S11304001F5F163028F4CE0101960E94CA00CFCF98
S11304106DE2CE0101960E94C40011E0C8CFCE0166
S113042005960E94F9008F3F2FEF920709F46EC0E2
S11304308C30910539F46DE0CE0101960E94C40020
S113044011E0EDCF153009F059C08B30910509F05A
S113045055C08981F81222C08A81E8121FC08B819D
S1130460C8121CC08C81D81219C040E060E0CE01D3
S113047001960E94E3004EE061E0CE0101960E94E5
S1130480E3004FE062E0CE0101960E94E30040E108
S113049063E0CE0101960E94E30046C048E060E0BC
S11304A0CE0101960E94E30041E161E0CE01019694
S11304B00E94E30040E062E0CE0101960E94E30066
S11304C042E163E0CE0101960E94E30000E010E007
S11304D0CE0101960E94CA0081EE94E00197F1F7E3
S11304E000C000000F5F1F4F083C110589F76DE045
S11304F0CE0101960E94C40011E091CF6FEF610F0D
S1130500482FCE0101960E94E3001F5F163028F4A5
S1130510CE0101960E94CA0082CF6DE2CE010196FF
S11305200E94C40011E07BCFCE0101960E94CA0054
S1130530FBCFEE0FFF1F0590F491E02D0994F89482
S1050540FFCFE7
S9030000FC
